:020000040000fa
:080000000002040000000000f2
:020000040000fa
:10000800f6020000f6020000f6020000f602000008
:10001800f6020000f6020000f6020000f6020000f8
:10002800f6020000f6020000f60200008a0800004e
:10003800f6020000f6020000f6020000f6020000d8
:10004800f6020000f6020000f6020000da0b0000db
:10005800f40b0000f6020000f6020000f6020000b1
:10006800f6020000f6020000f6020000c2080000d6
:10007800f6020000f6020000f6020000f602000098
:10008800f6020000f6020000f6020000f602000088
:10009800f6020000f6020000f6020000f602000078
:1000a800f6020000f6020000f6020000f602000068
:1000b800f6020000f6020000f6020000f602000058
:1000c800f6020000f6020000f6020000f602000048
:1000d800f6020000f6020000f6020000f602000038
:1000e800f6020000f6020000f6020000f602000028
:1000f800f6020000f6020000f6020000f602000018
:10010800f6020000f6020000f6020000f602000007
:10011800f6020000f6020000f6020000f6020000f7
:10012800f6020000f6020000f6020000f6020000e7
:10013800f6020000f6020000f6020000f6020000d7
:10014800f6020000f6020000f6020000f6020000c7
:10015800f6020000f6020000f6020000f6020000b7
:10016800f6020000f6020000f6020000f6020000a7
:10017800f6020000f6020000f6020000f602000097
:10018800f6020000f6020000f6020000f602000087
:10019800f6020000f6020000f6020000f602000077
:1001a800f6020000f6020000f6020000f602000067
:1001b800f6020000f6020000f6020000f602000057
:1001c800f6020000f6020000f6020000f602000047
:1001d800f6020000f6020000f6020000f602000037
:1001e800f6020000f6020000f6020000f602000027
:1001f800f6020000f6020000f6020000f602000017
:10020800f6020000f6020000f6020000f602000006
:10021800f6020000f6020000f6020000f6020000f6
:10022800f6020000f6020000f6020000f6020000e6
:10023800f6020000f6020000f6020000f6020000d6
:10024800f6020000f6020000f6020000f6020000c6
:10025800f6020000f6020000f6020000f6020000b6
:020000040000fa
:100400004f0121000eff27000e01880000000000b0
:10041000000020000000e000020032000001200087
:10042000200288000c00070060cb200001002000a3
:100430000f000700000020000000e0000200320072
:100440000000020000000000fa05020000000000a9
:100450000040da000000fe00200020000000e00064
:100460000200320010002000900188000000060009
:10047000a1028800800078000000eb001a0037001d
:10048000e280400054a0b4009101ba00e280400034
:1004900054a0b4009102ba00e280400054a0b4001d
:1004a0000002eb00472bde00f507b200a601880032
:1004b000602ce10008003a000049eb000201e8006e
:1004c000020039003420ec0002f0a0008301e900b2
:1004d000f9ff3e00040037006128e100010032000e
:1004e0000082eb00040007001101ba000200e000e6
:1004f000e3ff3a000000060004d0a300e20f490029
:100500001c003900810278003549ba000201e80078
:10051000020039003420ec0002f0a0008301e90061
:100520000f0032002549ba000201e800020039003c
:100530003420ec0002f0a0008301e9000800320042
:100540000400e0000600320015c9ba000201e8000c
:10055000020039003420ec0002f0a0008301e90021
:100560008180e80054a0b4000300e000e2ff3a00fc
:10057000000006009102ba00055978008301e900e5
:10058000f7ff3200c82ade00055978008301e90030
:10059000f3ff32000400e000f1ff320011d9ba008d
:1005a000eeff3700b6060400000000004a07040012
:1005b00000000000fc0b04000000000066070400bf
:1005c0000000000090070400000000007407040011
:1005d000000000008207040000000000c20b0400bd
:1005e00000000000a40b0400000000000040da003e
:1005f0000000fe000000fa00889fbe008a9fbe0037
:100600003004be002005be000404440085844c0074
:1006100006054d0087854d000898be000a90be0073
:100620000440e10005c8e10006d0e10007d8e10080
:1006300002003100680040001008e8004f05be00cd
:100640004f04be000080fa00000006001000fa000f
:10065000889fbe008a9fbe000605be000404be003f
:100660003002be002003be00049fbe000697be00fd
:10067000110020000802520089825a000a035b0020
:100680008b835b0044079800550798006607980025
:10069000770798000498be000698be003e02be0090
:1006a0002e03be000820e10009a8e1000ab0e10025
:1006b0000bb8e100010039008000eb004f05be00df
:1006c000108810004f04be000080fa0000000600f1
:1006d0001400fa00889fbe005b0007008a9fbe00de
:1006e0008c9fbe000006eb004c0798003c0798006a
:1006f0002c0798001c0798000c0f78000605be0018
:100700000404be000d0420004e039000be029000c1
:10071000860343002e029000e00f530003003d00cb
:100720002a000700b3ff0700020037002700070078
:10073000c6ff0700ce029000150f9800e08f520010
:1007400009003500450007001400200005002000c6
:100750006033b800000072008180720002017300f3
:1007600083817300380007000c06e8008d0f5600e7
:10077000e5ff3a001e0a9000e00f520004003d0021
:100780000802be000a03be000e00780099ff0700b1
:100790004eba9700e00f520006003a003e04be0039
:1007a0002e05be0058079800690798007a07980040
:1007b0000b0f98004f06be00280007004f05be0033
:1007c0004f04be000080fa00000006004f2bde0040
:1007d0002200070086837300858242004f23de00db
:1007e000470798008682720004024200350798008d
:1007f0009e0290004f2bde008582420006027200ae
:10080000240798001e0278004f23de0004024200f5
:1008100086827200150798004f18de00000f7200e4
:100820000e0007000802be000a03be0000004000e0
:1008300081804800020149008381490002000700cd
:100840000e0078000000060050079800610798002d
:1008500072079800030f9800000006005e009000e9
:10086000ee0090007e0190008e09900000000600ce
:100870000000fa00881f780018002000881f780008
:1008800093ff07008f87e9004f0478000080fa008b
:10089000000006000000fa00801feb008cff07003c
:1008a0008f87e9000080fa00000006000000fa00cf
:1008b000889fbe008a9fbe00e00f5000e08f580066
:1008c000e00f5900e08f59000c003d006044b80073
:1008d0006055b8000000540081805c0002015d009a
:1008e00083815d00180020001600070008003d000d
:1008f000190007000004eb00050037000004eb00be
:100900001000070002003d0013000700180020003f
:10091000d7ff0700e00f5400060032006022b80045
:100920006033b8000000520081805a0002015b0071
:1009300083815b004f05be004f04be000080fa00bb
:1009400000000600e00f5200e08f5a00e00f5b004d
:10095000e08f5b00000006006044b8006055b800fe
:100960000402540085825c0006035d0087835d00fd
:10097000000006000000fa00889fbe008a9fbe00ab
:100980008c1f7800e00f5000e08f5800e00f5900f6
:10099000e08f59000d003d006044b8006055b8007c
:1009a0001c0020000000540081805c0002015d00fa
:1009b00083815d000820e10009a8e1000ab0e100a0
:1009c0000bb8e1000d003d00080037000006eb0009
:1009d000e00f5200e08f5a00e00f5b00e08f5b00f9
:1009e00006003d006044b8006055b80004025400a1
:1009f00085825c0006035d0087835d00a5ff07001c
:100a0000e00f5600060032006022b8006033b800e4
:100a10000000520081805a0002015b0083815b006c
:100a20004f0678004f05be004f04be000080fa005c
:040a300000000600bc
:020000040000fa
:100a34000000fa0094022000343a8800243a80002e
:100a44000460a1000470a100243a8800253a8000c3
:100a540004fe2f0004826200243a88000002eb00a6
:100a6400443a88001600200084072000a5092000cd
:100a740037742000844b7800854b7800864b7800cf
:100a8400160020006404200075052000277420004f
:100a9400844b7800854b7800864b7800000000007a
:100aa400153a8000040027008482620004002100bb
:100ab400848f5200faff3a0000000000153a8000cb
:100ac4000402200004826200e00f5200fbff3200a7
:100ad4000080fa00000006000000fa00314ea90070
:100ae400508ea80050aea80040cea8004ecea9005b
:100af4004ccea800106ea9001e6ea900108ea9008d
:100b04001e6ea90040aea8004eaea900104ea8006b
:100b14001e4ea900144ea9001a4ea80060cea900ca
:100b240060eea900610ea900612ea90064cea9009f
:100b340064eea900650ea900652ea900408ea900e7
:100b4400406ea900404ea900402ea900400ea90005
:100b54004e8ea9004e6ea9004e4ea9004e2ea9003d
:100b64004e0ea900118ea90011aea90011cea90044
:100b740011eea900158ea80015aea80015cea80088
:100b840015eea8000080fa00000006000000fa003c
:100b9400c3e8a8002068a8000068a90020e8a8000d
:100ba40000e8a9002268a8000268a90048aea800cd
:100bb400588ea80058aea8000080fa000000060075
:100bc4000000fa00240880000440a1000450a100a1
:100bd400240888000421a90004c1a90014162000d7
:100be4001408880005e1a8000080fa00000006004f
:100bf4000200fa000042eb00044f78008cff07006b
:100c0400b5ff0700e1ff0700edff07009402200095
:100c140054808800646b200004000100a474200048
:100c2400040001002400200064808800c4bf200068
:100c340004000100354ea900010037000000000047
:100c4400250121009542780074c7b30084cf520077
:100c540005003200250121009542780074c5b300d7
:100c640084cf520005003a00740520002411880046
:100c740064762000040001003a00370025012100b9
:100c84009542780014c4b30084cf520005003200aa
:100c9400250121009542780014c6b30084cf520088
:100ca40005003a001404200024118800047920006f
:100cb400040001002b003700250121009542780033
:100cc40034c7b30084cf520005003200250121004f
:100cd4009542780034c5b30084cf520005003a0031
:100ce400340520002411880044772000040001000a
:100cf4001c003700250121009542780044c4b3004c
:100d040084cf52000500320025012100954278006d
:100d140044c6b30084cf520005003a0044042000c6
:100d24002411880024782000040001000d003700fd
:100d3400250121009542780004c2b30084cf5200fb
:100d440005003200250121009542780004c2b30059
:100d540084cf5200b9ff3a00a474200004000100bb
:100d6400b7ff3700b6ff37000000fa005580800057
:100d740004052000848f520006003400448ea8002d
:100d8400446ea800444ea800442ea800440ea800b7
:100d94003d00370055808000c4032000848f52003a
:100da4000a0034005580800004052000848f52001e
:100db40006003c00448ea800446ea800444ea800df
:100dc400442ea800440ea9002f003700558080004f
:100dd40084022000848f52000a0034005580800071
:100de400c4032000848f520006003c00448ea800f7
:100df400446ea800444ea800442ea900440ea90045
:100e04002100370054808000f40f52000a0034009f
:100e14005580800084022000848f520006003c002c
:100e2400448ea800446ea800444ea900442ea90094
:100e3400440ea9001400370054808000e00f5200d3
:100e44000900340054808000f40f520006003c0076
:100e5400448ea800446ea900444ea900442ea90063
:100e6400440ea9000800370054808000e00f5200af
:100e740005003c00448ea900446ea900444ea9001c
:100e8400442ea900440ea9000080fa0000000600c8
:100e94000000fa0064808000e00f520004003a0071
:100ea40064cea80064eea900650ea800652ea90012
:100eb40064cea90064eea900650ea900652ea90000
:100ec4000080fa00000006000000fa0064cea800ca
:100ed40064eea900650ea800652ea9000080fa0042
:100ee400000006000000fa0064cea90064eea80029
:100ef400650ea900652ea8000080fa000000060017
:100f04000000fa0064cea90064eea800650ea800f3
:100f1400652ea9000080fa00000006000000fa0017
:100f240064cea80064eea900650ea900652ea80091
:100f34000080fa00000006000000fa0048aea90094
:100f440080d420000100200079020700146ea8005c
:100f5400807e21000100200075020700146ea900a4
:100f640000eb24001100200071020700146ea80099
:100f740000fd2200010020006d020700146ea9008c
:100f8400806c23001100200069020700146ea80081
:100f940000fd22000100200065020700146ea90074
:100fa400806c23001100200061020700146ea90068
:100fb40080692600110020005d020700146ea9005c
:100fc40048aea80080d42000010020005802070089
:100fd4000080fa00000006000200fa000002eb00a4
:100fe400040f7800050037001e0fe800d2ff070049
:100ff400009a2000110020004d0207001403200075
:101004009e027800848f5200f7ff34000080fa00bb
:10101400000006000200fa00000f78001e027800ab
:10102400e10f520005003a00158ea900001e2d00a4
:10103400d10420003e020700158ea8001e0278008d
:10104400e20f520009003a0091ff070015cea900f3
:10105400001e2d00d10420003502070015cea80083
:1010640000c82c0061202000310207001e02780015
:10107400e30f520005003a0015aea900001e2d0032
:10108400d10420002a02070015aea8001e02780031
:10109400e40f520005003a0015eea900001e2d00d1
:1010a400d10420002202070015eea8000080fa00f7
:1010b400000006000000fa0075ff070000282c005d
:1010c400710620001a02070086ff070000c82c00e2
:1010d40061202000160207006dff070000282c0085
:1010e400710620001202070085ff070000c82c00cb
:1010f400612020000e02070065ff070000282c0075
:10110400710620000a0207000080fa0000000600b1
:10111400849fbe00861f78003200f800140020006f
:1011240094018800000000000000fa00a470800010
:101134007002620004f0a7000402ea000402e9005d
:101144004f22de00044278000482fb006102620048
:101154004422dd00a6708000f5fe2f0085026300a6
:1011640005027200a47088000068a9000080fa00db
:101174003200f9004f0378004f02be000040060021
:101184003600f800809fbe00829fbe00849fbe0090
:10119400869fbe003200f8001000200090018800f5
:1011a400000000001400fa00c3e8a9006022b8009f
:1011b400040f9800150f98006022b800048fbe0039
:1011c4006022b80024079800350798006022b80010
:1011d40044079800550798006022b80064079800f7
:1011e400750798009472800070026200e00f52004c
:1011f4001d003a00001e2d00d1042000cc01070080
:1012040064808000e20f520005003a000002eb0007
:101214006480880024bc2000040001001200370010
:1012240064808000e00f520003003a0014002000a4
:1012340064808800020037000002eb0064808800ac
:1012440064808000e10f520004003a0044ba200098
:10125400040001000eff07000300370024bc200037
:10126400040001000aff07009572800004022000b8
:1012740004826200e00f520001003a008dff070073
:10128400157280000402200004826200e00f520004
:1012940022013a0019003700140020000500200044
:1012a4001e0f42005e974a000e0a90009e0a9000ac
:1012b40061024200e0824a00040f9800150f980072
:1012c400200220000100200099010700157280000f
:1012d4000402200004826200e00f52000c003a0075
:1012e4000e0b90009e0b900084bb20000500200094
:1012f400840f5300858f5b0005003c00157280004d
:101304000402200004826200e00f5200e2ff320077
:101314006022b800040f9800150f980015003700dc
:101324000e0a90009e0a900061024200e0824a0088
:10133400040f9800150f98002002200001002000df
:101344007b01070015728000040220000482620001
:10135400e00f52000c0032000e0b90009e0b900028
:1013640084bb200005002000840f5300858f5b00a0
:1013740005003c0015728000040220000482620013
:10138400e00f5200e6ff3a006022b800040f980014
:10139400150f98001b0037002e029000be0290002b
:1013a40061024200e0824a00240798003507980051
:1013b4000e0a90009e0a900061024200e0824a00f8
:1013c400040f9800150f980020022000010020004f
:1013d4005701070015728000040220000482620095
:1013e400e00f52000c003a000e0b90009e0b900090
:1013f40084bb200005002000840f5300858f5b0010
:1014040005003c0015728000040220000482620082
:10141400e00f5200e0ff32006022b800040f980091
:10142400150f9800150037000e0a90009e0a9000d0
:1014340061024200e0824a00040f9800150f9800f0
:1014440020022000010020003901070015728000ed
:101454000402200004826200e00f52000c003200fb
:101464000e0b90009e0b900084bb20000500200012
:10147400840f5300858f5b0005003c0015728000cb
:101484000402200004826200e00f5200e6ff3a00ea
:101494006022b800040f9800150f98001b00370055
:1014a4004e029000de02900061024200e0824a0097
:1014b40044079800550798000e0a90009e0a900071
:1014c40061024200e0824a00040f9800150f980060
:1014d4002002200001002000150107001572800081
:1014e4000402200004826200e00f52000c003a0063
:1014f4000e0b90009e0b900084bb20000500200082
:10150400840f5300858f5b0005003c00157280003a
:101514000402200004826200e00f5200e0ff320067
:101524006022b800040f9800150f980015003700ca
:101534000e0a90009e0a900061024200e0824a0076
:10154400040f9800150f98002002200001002000cd
:10155400f700070015728000040220000482620074
:10156400e00f52000c0032000e0b90009e0b900016
:1015740084bb200005002000840f5300858f5b008e
:1015840005003c0015728000040220000482620001
:10159400e00f5200e6ff3a006022b800040f980002
:1015a400150f98001b0037006e029000fe02900099
:1015b40061024200e0824a006407980075079800bf
:1015c4000e0a90009e0a900061024200e0824a00e6
:1015d400040f9800150f980020022000010020003d
:1015e400d300070015728000040220000482620008
:1015f400e00f52000c003a000e0b90009e0b90007e
:1016040084bb200005002000840f5300858f5b00fd
:1016140005003c0015728000040220000482620070
:10162400e00f5200e0ff32006022b800040f98007f
:10163400150f980004052000050020001e03be00bd
:10164400840f5300858f5b0034003400740c200039
:10165400050020001e03be00840f5300858f5b002d
:101664002e003c002e039000be039000040f2000c7
:1016740005002000840f5300858f5b001a0034009e
:101684002e039000be039000541320000500200098
:10169400840f5300858f5b0013003c004e039000c1
:1016a400de039000040f200005002000840f530087
:1016b400858f5b00190034004e039000de03900018
:1016c400f418200005002000840f5300858f5b0070
:1016d40011003c00548080000402e900548088001a
:1016e400a1fd07000d0037002e039000be039000fb
:1016f400b417200005002000840f5300858f5b0081
:1017040006003c00548080000402e80054808800f5
:1017140095fd070001003700000000000268a900e1
:10172400c3e8a8000080fa003200f9004f03be00ad
:101734004f02be004f01be004f00be003600f9004c
:10174400004006000000fa00d1fd07000058260002
:1017540041612000760007000002eb0084808800cd
:101764000002eb0074808800c9fd070020002000ff
:1017740028fe0700c6fd07000080fa0000000600ee
:101784000000fa00c2fd07000002eb00848088001c
:10179400100020001ffe070000202300b18120005c
:1017a40063000700bafd07000080fa00000006008d
:1017b400849fbe00861f78000000fa003411800068
:1017c400044278000443780025012100864a780009
:1017d4000168a9000080fa004f0378004f02be00a0
:1017e400004006000000fa000188a9000080fa0009
:1017f400004006000200fa0021e2a90021a2a9008b
:101804002182a9002162a900041180000480a100a2
:101814000490a1000411880020e2a90020c2a900bc
:1018240020a2a9002062a900041180000410a100d4
:101834000420a100041188002002a90004582200f9
:10184400040f78001e027800cfa2de0005037800a2
:101854008603780000902900d14020006011b80070
:1018640002fc07000203be000002be000400be002a
:101874000601be00a4012000050020006033b8006a
:10188400fafb07000203be000002be000402780057
:101894000402e9004411880023e2a90023c2a9003c
:1018a40023a2a9002362a9002342a9002322a9009c
:1018b4002302a900141180000460a1000470a10097
:1018c4001411880022a2a9002282a9002262a90080
:1018d4002242a9002222a9002202a90004402400d5
:1018e400744288000188a9002188a8000168a90021
:1018f4002168a8001534800004fc2f0004826200d3
:101904000400a000143488002536800004f82f0059
:101914008482620094042000050272002436880048
:1019240021e2a8002342a8000080fa00000006007b
:020000040000fa
:10193400f03fb1000180b10006003500ee0309005c
:1019440000000000403fb1000180b100fbff3d00fa
:101954001000b000203fb0000200350000800900f4
:08196400000000000000060075
:020000040000fa
:10196c0000100000120000008000000012100000a7
:10197c0002000000820000002000000000000000b7
:020000040000fa
:0200000401f009
:04000800cfffff0027
:020000040000fa
:0200000401f009
:04000c00ffffff00f3
:020000040000fa
:0200000401f009
:040010003fffff00af
:020000040000fa
:0200000401f009
:040014007fffff006b
:020000040000fa
:0200000401f009
:04001800ffffff00e7
:020000040000fa
:0200000401f009
:04001c00dfffff0003
:020000040000fa
:0200000401f009
:04002000cfffff000f
:00000001FF
