:020000040000fa
:080000000002040000000000f2
:020000040000fa
:10000800d2020000d2020000d2020000d202000098
:10001800d2020000d2020000d2020000d202000088
:10002800d2020000d2020000d2020000a6030000a3
:10003800d2020000d2020000d2020000d202000068
:10004800d2020000d2020000d2020000d202000058
:10005800d2020000d2020000d2020000d202000048
:10006800d2020000d2020000d2020000d202000038
:020000040000fa
:10040000af0021000eff27000e0188000000000051
:10041000000020000000e000020032000001200087
:10042000200288000c000700e042200001002000ac
:100430000f000700000020000000e0000200320072
:100440000000020000000000de03020000000000c7
:100450000040da000000fe00200020000000e00064
:100460000200320010002000900188000000060009
:10047000a1028800800078000000eb001a0037001d
:10048000e280400054a0b4009101ba00e280400034
:1004900054a0b4009102ba00e280400054a0b4001d
:1004a0000002eb00472bde00f507b200a601880032
:1004b000602ce10008003a000049eb000201e8006e
:1004c000020039003420ec0002f0a0008301e900b2
:1004d000f9ff3e00040037006128e100010032000e
:1004e0000082eb00040007001101ba000200e000e6
:1004f000e3ff3a000000060004d0a300e20f490029
:100500001c003900810278003549ba000201e80078
:10051000020039003420ec0002f0a0008301e90061
:100520000f0032002549ba000201e800020039003c
:100530003420ec0002f0a0008301e9000800320042
:100540000400e0000600320015c9ba000201e8000c
:10055000020039003420ec0002f0a0008301e90021
:100560008180e80054a0b4000300e000e2ff3a00fc
:10057000000006009102ba00055978008301e900e5
:10058000f7ff3200c82ade00055978008301e90030
:10059000f3ff32000400e000f1ff320011d9ba008d
:0c05a000eeff37000040da000000fe0013
:020000040000fa
:1005ac000000fa0094022000343a8800243a8000bb
:1005bc000460a1000470a100243a8800253a800050
:1005cc0004fe2f0004826200243a88000002eb0033
:1005dc00443a88001600200084072000a50920005a
:1005ec0037742000844b7800854b7800864b78005c
:1005fc0016002000640420007505200027742000dc
:10060c00844b7800854b7800864b78000000000006
:10061c00153a800004002700848262000400210047
:10062c00848f5200faff3a0000000000153a800057
:10063c000402200004826200e00f5200fbff320033
:10064c000080fa00000006000000fa00140ea8005a
:10065c00807e2100010020006f000700140ea9000d
:10066c0000eb2400110020006b000700140ea80002
:10067c0000fd22000100200067000700140ea900f5
:10068c00806c23001100200063000700140ea800ea
:10069c0000fd2200010020005f000700140ea900dd
:1006ac00806c2300110020005b000700140ea900d1
:1006bc00806926001100200057000700140ea900c5
:1006cc000080fa00000006000000fa000002eb00b7
:1006dc00847088000002eb00f4708800106ea80093
:1006ec000080fa00000006000000fa00c3e8a80031
:1006fc002068a8000068a90020e8a80000e8a9006c
:10070c002268a8000268a9000080fa000000060018
:10071c000000fa00240880000440a1000450a1004d
:10072c00240888000421a90004c1a9001416200083
:10073c001408880005e1a8000080fa0000000600fb
:10074c00849fbe00861f78003200f8001400200041
:10075c0094018800000000000000fa00a4708000e2
:10076c006202620004f0a7000402ea000402e9003d
:10077c004f22de00044278000482fb00610262001a
:10078c0004024200a6708000d5ff2f008502630092
:10079c0005027200a47088000068a9000080fa00ad
:1007ac003200f9004f0378004f02be0000400600f3
:1007bc000000fa007aff0700c3ff0700caff07001a
:1007cc00d3ff0700144ea9009fff0700a470800000
:1007dc006402620004f0a7000402ea000402e900cb
:1007ec004f22de00044278000482fb0061026200aa
:1007fc004222dd00a6708000b5ff2f008502630049
:10080c0005027200a47088000064260031102000dc
:08081c0001000700ecff3700aa
:020000040000fa
:10082400f03fb1000180b10006003500ee0309007d
:1008340000000000403fb1000180b100fbff3d001b
:100844001000b000203fb000020035000080090015
:08085400000000000000060096
:020000040000fa
:10085c00001000000a0000008000000000000000f2
:020000040000fa
:0200000401f009
:04000800cfffff0027
:020000040000fa
:0200000401f009
:04000c00ffffff00f3
:020000040000fa
:0200000401f009
:040010003fffff00af
:020000040000fa
:0200000401f009
:040014007fffff006b
:020000040000fa
:0200000401f009
:04001800ffffff00e7
:020000040000fa
:0200000401f009
:04001c00dfffff0003
:020000040000fa
:0200000401f009
:04002000cfffff000f
:00000001FF
