:060000000A128A11122809
:10000800FE00030EF3000408F4000A08F50083124A
:1000180003137F08F6000A128A114C290A128A1162
:100028001528F901FA01FB01FC01FD01A001A1015C
:10003800A201A301A401A501A601A701A801A90184
:1000480083010A128A1128287130831603138F003E
:100058000F140B178B170C15023085008316031726
:1000680088018312031305148316031307158312DB
:100078000313051185110517851285130A128A11B4
:10008800AF220A128A110A128A1187220A128A11C9
:10009800831203130C11A201A301A401A501F90104
:1000A800FA01FB01FC01A801A9010130B2000030EE
:1000B800B300A001A101831203138518A428B62850
:1000C8000230A2000030A300663099000330B1006E
:1000D8008A30B0005630AF00AF0B7028B00B7028D4
:1000E800B10B70287728B628023083120313A200B8
:1000F8000030A300663099000330B1008A30B000A8
:100108005630AF00AF0B8628B00B8628B10B862877
:100118008D28B628013083120313A2000030A300F3
:10012800773099000330B1008A30B0005630AF0004
:10013800AF0B9C28B00B9C28B10B9C28A328B62891
:10014800831203132308003A0319AB28B6282208A0
:10015800003A03196428013A03197828033A031965
:100168008E28B6288312031322082304031DDB28D4
:100178000310051C0314031CC5288312031305145C
:10018800C8288312031305100230B1008630B0006E
:100198009930AF00AF0BCE28B00BCE28B10BCE28CC
:1001A8008312031305118511831603130C1183128F
:1001B80022032304031DE62805100515851183165F
:1001C80003130C110230831222062304031D3C2959
:1001D800051005118515831603130C150A128A11CB
:1001E80049220A128A111A3083120313B000F83018
:1001F800AF00AF0BFD28B00BFD28000003108312E1
:100208000313851D0314031C0D298312031385157D
:1002180010298312031385114130B000EE30AF006E
:10022800AF0B1429B00B1429000003108312031319
:10023800851D0314031C24298312031385152729FC
:100248008312031385110A128A1149220A128A118C
:100258001A3083120313B000F830AF00AF0B322905
:10026800B00B322900000A128A1149220A128A1197
:10027800023083120313B1000430B000BA30AF006B
:10028800AF0B4429B00B4429B10B442900005F2867
:100298008B138C1E75291A08F0007008FD000514D0
:1002A8000230F2000430F100BA30F000F00B5A29A5
:1002B800F10B5A29F20B5A29000083120313051077
:1002C8000230F2000430F100BA30F000F00B6A2975
:1002D800F10B6A29F20B6A2900008B1783120313AA
:1002E8008C120C1DE7290130A0070318A10A003061
:1002F800A1072108803AFF0093307F02031D862959
:1003080089302002031CE4298312031332083304C2
:10031800031D9B291508F000F1017008F900710808
:10032800FA001708F039043897000130AB29320376
:100338003304031DAF291508F000F1017008FB0014
:100348007108FC001708F039053897000230B20030
:100358000030B300D5297909F0007A09F100F00AD4
:100368000319F10A7B087007F7007C0803187C0A58
:100378007107F8007C087A02031DC4297B087902FA
:100388000318D12900307802803003197702031846
:10039800CF296730D02973309900A001A101B2019B
:1003A800B3012108803AFF0094307F02031DDE2943
:1003B8001F302002031CE42983120313A001A101AA
:1003C800831203130C118B177608FF0075088A0037
:1003D80074088400730E8300FE0E7E0E0900362A10
:1003E800023083120313A2000030A3006630990084
:1003F8000330AC008A30AB005630AA00AA0B022AA0
:10040800AB0B022AAC0B022A092A0800023083121D
:100418000313A2000030A300663099000330AC003B
:100428008A30AB005630AA00AA0B182AAB0B182A40
:10043800AC0B182A1F2A0800013083120313A200EC
:100448000030A300773099000330AC008A30AB004D
:100458005630AA00AA0B2E2AAB0B2E2AAC0B2E2A3A
:10046800352A0800831203132308003A03193D2A8A
:10047800482A2208003A0319F429013A03190A2ADA
:10048800033A0319202A482A08008B1383120313FE
:10049800AD01AE01AD01AE012E08803AFF008030FB
:1004A8007F02031D592A32302D020318852A0310B2
:1004B80083120313051E0314031C662A83120313F5
:1004C8000516692A8312031305126A2A8312031375
:1004D800851C722A0A128A11F3210800013083123E
:1004E8000313AD070318AE0A0030AE072E08803A92
:1004F800FF0080307F02031D832A32302D02031C47
:100508005C2A8B1708008312031310101013CF30C6
:100518009005901190108F018E011014831603130B
:100528000C11831203130C11831603130C1083127E
:1005380003130C101708F0390638970083160313B5
:100548000C15831203130C11831603130C1083125A
:1005580003130C100800831603139816181283123D
:10056800031398178316031318118316031787119B
:100578000C308316031399001A088C168312031380
:040588008C120800C9
:04400E00F4EFFFFFCD
:00000001FF
